:100000000EC028C027C026C025C024C023C022C0DF
:1000100021C020C01FC01EC041C01CC01BC0112475
:100020001FBECFE5D2E0DEBFCDBF10E0A0E6B0E05E
:10003000EEECF0E002C005900D92A036B107D9F7C2
:1000400020E0A0E6B0E001C01D92A136B207E1F7C2
:1000500002D039C0D5CF0E942F000E945F00789453
:1000600081E08093600092E097BB98BB20E030E194
:1000700046E450E367E48093600024BF31BD41BD96
:1000800055BF889528BB8093600024BF31BD61BDFA
:1000900055BF88958093600098BBEDCF0F921F925B
:1000A0000FB60F9200248F9381E08093600080E070
:1000B00084BF8F910F900FBE1F900F90189581E015
:0E00C00090E0F89402C0F89400C0F894FFCFCE
:00000001FF
