:100000000EC028C027C026C025C024C023C022C0DF
:1000100021C020C01FC01EC0C7C01CC01BC01124EF
:100020001FBECFE5D2E0DEBFCDBF10E0A0E6B0E05E
:10003000EAEDF1E002C005900D92A036B107D9F7C4
:1000400020E0A0E6B0E001C01D92A136B207E1F7C2
:1000500002D0BFC0D5CF0E942F000E94E5008F9232
:100060009F92AF92BF92CF92DF92EF92FF920F9347
:100070001F93789481E08093600002E007BB81E0E9
:1000800090E07C0180E090E05C018CE390E04C012A
:1000900011E01093600008BBB7016501C6010E9422
:1000A0005A001093600080E088BBB401C6010E9432
:1000B0005A00EFCF1F9348E050E020E030E0E1E04D
:1000C000641775078207930708F0E0E0E170E030FD
:1000D000C9F4E0E1F1E6A0E310E0B1E0B093600024
:1000E00014BFE1BDF1BDA5BF685070408040904095
:1000F000641775078207930708F4B0E0B17088951C
:10010000B03059F7E4E0F0E041E06E177F07820776
:10011000930708F440E04170403081F041E04093A3
:10012000600040E044BF40E141BD40E641BD40E3E6
:1001300045BF64507040804090408895E2E0F0E018
:1001400041E06E177F078207930708F040E0417097
:10015000403081F441E04093600040E044BF40E122
:1001600041BD47E441BD40E345BF6250704080401F
:1001700090408895E1E0F0E041E06E177F0782074C
:10018000930709F440E04170403061F481E08093CE
:10019000600080E084BF80E181BD86E481BD80E3B2
:1001A00085BF88951F9108950F921F920FB60F92E9
:1001B00000248F9381E08093600080E084BF8F9162
:1001C0000F900FBE1F900F90189581E090E0F8946B
:0A01D00002C0F89400C0F894FFCFBD
:00000001FF
